:100000000C94BF040C94D4040C94D4040C94D40425
:100010000C94D4040C94D4040C94D4040C94D40400
:100020000C94D4040C94D4040C94D4040C94D404F0
:100030000C94D4040C94D4040C94D4040C94D404E0
:100040000C94D4040C94D4040C94D4040C94D404D0
:100050000C94D4040C94D4040C94D4040C94D404C0
:100060000C94D4040C94D404000604000402040488
:1000700004060408040C0602000202020406040638
:100080000206001400040204020202000600060236
:1000900006040404020602080008020A020C060C08
:1000A000060A0608040806060804080811000402E7
:1000B0000204020400060208020404040602060404
:1000C00008040A020A000A040C060A080806060DBB
:1000D0000000000202020200060404060208000AF0
:1000E000060A060C080C080A08020F0002000402A7
:1000F000060008000A020C040C060A0408040406A0
:1001000002040002000808080C04020004000402B3
:10011000020407020402060208040A060C0402068E
:10012000000702000402060406060608040A020C80
:100130000B00040206040604040402060604080474
:100140000A00080808080409000602060406040458
:100150000402060608060408040A04020804080447
:100160000A020C050006020604060606080604023A
:100170000A020C040C040A05000A0208040606041C
:100180000802130002000400060008000A02080426
:100190000606040804080206000400020008060817
:1001A00008080A060C040C020C0A020204020400ED
:1001B000040404060408040A040C020C060C0E00D5
:1001C00002020004000600080208040606040802F1
:1001D0000A020C000C040C060C080C0E00000200B5
:1001E000040006000602040406060808080A060CB5
:1001F000040C020C000A08000E00060008020804A5
:1002000008060806060604060204020204060008A0
:1002100008060A060C11000000020004020404048F
:10022000060408060808080A060C040C020C000A5A
:1002300002000400060008000F0004000600080089
:100240000A020C040C060C080A080806060406023A
:10025000060202040006000B000002000400060073
:1002600008000802060404060208020A020C110033
:10027000020004020604060606080408020600043A
:100280000002000008000A020C040C060C080A0810
:10029000080F000200040206040606060806080409
:1002A00008020600040002000808060A040C020CFA
:1002B00008020202040404040204080208020A04F8
:1002C0000A08020202040404040204080208040AE0
:1002D000020C0700060204040206000208040A06D3
:1002E0000C0A0004020404040604080408080608B2
:1002F00004080208000807020004020604080606B3
:1003000008040A020C0900020200040006000802A8
:10031000080406060408040C120002020004000689
:10032000000802080408060808080A060C040C0263
:100330000C000A0008020604060408040A1200025F
:10034000000400060008000A000C02080408060861
:100350000808080608040802060004000200080A4B
:10036000080C1400000002000400060008000A0047
:100370000C020C040C060C080A0808060604060207
:1003800006020004000600080208040D0002000432
:1003900000060008000A020C040C060C080A0802F9
:1003A0000600040002001000000002000400060025
:1003B00008000A000C020C040C060A0808080608CB
:1003C00004060204000200120000000200040006FD
:1003D0000008000A000C020C040C060C080C0606AF
:1003E0000406020602000400060008000E000000D9
:1003F00002000400060008000A000C0206040606BB
:1004000006060004000200080012000200040006B4
:100410000008000A020C040C060C080C080A080864
:100420000806060604060802060004000200110081
:10043000000002000400060008000A000C02060486
:1004400006060608060804080208000808080A0844
:100450000C0B020004000402040404060408040A4D
:10046000040C020C060C06000B000A020C040C061D
:100470000A06080606060406020600040008000E26
:1004800000000002000400060008000A000C040836
:100490000206040406020800060A080C0B0000000D
:1004A00002000400060008000A000C020C040C06FE
:1004B0000C080C1200000002000400060008000AEC
:1004C000000C0406040402020602080208000804E4
:1004D00008060808080A080C1100000002000400C1
:1004E000060008000A000C040602040608080808B2
:1004F00006080408020800080A080C10000200049C
:1005000000060008000A020C040C060C080A080881
:100510000806080408020600040002000F0000009C
:1005200002000400060008000A000C020604060689
:10053000060804080206000400020011000200047C
:1005400000060008000A020C040C060A0408080849
:10055000080608040802060004000200080C120045
:10056000000002000400060008000A000C04080451
:100570000602060606080408020600040002000639
:100580000A080C0F0002000402060406060608080A
:10059000080A060C040C020C000C02000400060001
:1005A00008000B0000020004000402040404060416
:1005B00008040A040C060008000F000000020004F2
:1005C00000060008000A020C040C060C080A0808C1
:1005D00008060804080208000D00000002000400DC
:1005E000060008020A040C060A080808060804089F
:1005F0000208001100000002000400060008000AC2
:10060000020C040A0408040608060804080208008C
:100610000808080A060C0D00000002020404060285
:1006200008000A000C0608080A080C06040802085C
:10063000000B00000002000402060408040A040C77
:1006400006060804080208000F0000020004000665
:100650000008000802060404060208000A000C0252
:100660000C040C060C080C0B020002020204020629
:100670000208020A020C040C060C06000400050025
:1006800002020404060608080A0B02000400060021
:100690000602060406060608060A060C040C020CEE
:1006A000050004020204000602080405000C020C06
:1006B000040C060C080C030200040206040E000AD7
:1006C00002080408060808080806060404040204D0
:1006D000020C040C060C080C080A100000000200B2
:1006E0000400060008000A000C020C040C060C08AA
:1006F0000A080808060604040402060A00060008A0
:10070000000A020C040C060C080A06040404020485
:100710001000060008000A020C040C060C080C0865
:100720000A08080806060604040204080408020869
:10073000000E00060008000A02080408060808085F
:100740000806060404040204020C040C060C0B0048
:100750000602060204020204000600080204060261
:1007600008020A020C100004000602080408060829
:100770000808080608040802060204020202020C25
:10078000040C060C080A0E0000000200040006001B
:1007900008000A000C0206040406040806080808FB
:1007A0000A080C090204040404060408040A040CE0
:1007B000020C060C040009000A020C040C060A06CE
:1007C0000806060604040406000C000000020004EB
:1007D00000060008000A000C020804060604040AC9
:1007E000060C0A02000400040204040406040804BF
:1007F0000A040C020C060C0D000400060008000A96
:10080000000C040804060204060408060808080A86
:10081000080C0C000400060008000A000C02060484
:1008200004060408060808080A080C0C000600085C
:10083000000A020C040C060C080A08080806060444
:10084000040402040C000400060008000A000C0264
:10085000080408060808060604040402040C00063E
:10086000020404040606060804080208080808062C
:100870000804080A080C09000400060008000A0021
:100880000C02060404060408060C00060204040414
:100890000604060804080208020C000C040C060CEE
:1008A000080A0B0004020402020200040402060209
:1008B00008020A040C060C080A0C000400060008D2
:1008C000000A020C040C060A080A080808060804B4
:1008D000080C09000400060008020A040C060A08B5
:1008E00008080608040C000400060008000A020CB0
:1008F000040A0408080808060804080A060C090087
:100900000402060408020A000C060A080C0606087F
:10091000040C00040006020804080608080808067B
:100920000804080A060C040C020C0D00040204045E
:1009300004060406060408020A020C000C040C0655
:100940000C080C080407020604040402060004084C
:10095000040A060C07040004020404040604080444
:100960000A040C0702000402040406060408040A30
:10097000020C0500080206040606080806001124F9
:100980001FBECFEFD8E0DEBFCDBF11E0A0E0B1E0E9
:10099000ECECFAE002C005900D92AA3CB107D9F741
:1009A0000E945B050C9464050C94000084B18C6279
:1009B00084B982E58CBD1DBC1EBC08958EBD0DB4EE
:1009C00007FEFDCF0895CF93C82F862F0E94DE0427
:1009D0008C2F0E94DE0485B18B7F85B985B1846040
:1009E00085B9CF910895DF92EF92FF920F931F93F5
:1009F000CF93DF93F62EE42E803E10F4805201C098
:100A00008055E82FF0E0EE0FFF1FE050FF4FC08150
:100A1000D181FE01E859FF4F04912196D12C81E04C
:100A20008D15C8F010E01017A0F4812F90E0880F0A
:100A3000991F8C0F9D1FFC01E759FF4F64916E0DAC
:100A4000FC01E859FF4F84918F0D0E94E3041F5F62
:100A5000EACFD394E4CFDF91CF911F910F91FF9014
:100A6000EF90DF9008950F931F93CF93DF93FC01D6
:100A7000C62FD42F80818823C9F0805D823008F48E
:100A8000319680818D3011F43196C0E080818A30BA
:100A900011F4D05F31968F010F5F1F4F4D2F6C2FD8
:100AA00080810E94F304C45FF801E4CFDF91CF910D
:100AB0001F910F9108950E94D6044AE06AE08EEBE0
:0C0AC00091E00E943305F9CFF894FFCFBD
:100ACC00000001000E001B00440067008200A10022
:100ADC00AA00B900C800DF00F200FB0006010F01FC
:100AEC001A014101560173019001AD01D001EF01D2
:100AFC0006022902480259026A0279028E029D02FC
:100B0C00B002D502FA0223033E035F038403A10360
:100B1C00C603E9030004170434044B047004930463
:100B2C00B404D304F6041B053A05510570058B0576
:100B3C00AE05C905E005FF05160621063806430675
:100B4C004E06550672069306A806C906E606FD066D
:100B5C001E073B074E0761077A078F07AA07C307D3
:100B6C00DC07F5070E0821083A0851086A087D08C9
:100B7C009608A908C208DD08EC08FB080A094655C6
:0A0B8C00434B20574F524C44210008
:00000001FF
